{
  "_format": "hh-sol-artifact-1",
  "contractName": "Paramify",
  "sourceName": "contracts/Paramify.sol",
  "abi": [
    {
      "inputs": [
        {
          "internalType": "address",
          "name": "_priceFeedAddress",
          "type": "address"
        },
        {
          "internalType": "address",
          "name": "_usdc",
          "type": "address"
        },
        {
          "internalType": "address",
          "name": "_usyc",
          "type": "address"
        }
      ],
      "stateMutability": "nonpayable",
      "type": "constructor"
    },
    {
      "inputs": [],
      "name": "AccessControlBadConfirmation",
      "type": "error"
    },
    {
      "inputs": [
        {
          "internalType": "address",
          "name": "account",
          "type": "address"
        },
        {
          "internalType": "bytes32",
          "name": "neededRole",
          "type": "bytes32"
        }
      ],
      "name": "AccessControlUnauthorizedAccount",
      "type": "error"
    },
    {
      "anonymous": false,
      "inputs": [
        {
          "indexed": true,
          "internalType": "address",
          "name": "customer",
          "type": "address"
        },
        {
          "indexed": false,
          "internalType": "uint256",
          "name": "premium",
          "type": "uint256"
        },
        {
          "indexed": false,
          "internalType": "uint256",
          "name": "coverage",
          "type": "uint256"
        }
      ],
      "name": "InsurancePurchased",
      "type": "event"
    },
    {
      "anonymous": false,
      "inputs": [
        {
          "indexed": true,
          "internalType": "address",
          "name": "oldOracle",
          "type": "address"
        },
        {
          "indexed": true,
          "internalType": "address",
          "name": "newOracle",
          "type": "address"
        }
      ],
      "name": "OracleAddressUpdated",
      "type": "event"
    },
    {
      "anonymous": false,
      "inputs": [
        {
          "indexed": true,
          "internalType": "address",
          "name": "customer",
          "type": "address"
        },
        {
          "indexed": false,
          "internalType": "uint256",
          "name": "usdcAmount",
          "type": "uint256"
        },
        {
          "indexed": false,
          "internalType": "uint256",
          "name": "usycAmount",
          "type": "uint256"
        }
      ],
      "name": "PayoutTriggered",
      "type": "event"
    },
    {
      "anonymous": false,
      "inputs": [
        {
          "indexed": false,
          "internalType": "uint256",
          "name": "amount",
          "type": "uint256"
        }
      ],
      "name": "ReserveDeposited",
      "type": "event"
    },
    {
      "anonymous": false,
      "inputs": [
        {
          "indexed": true,
          "internalType": "bytes32",
          "name": "role",
          "type": "bytes32"
        },
        {
          "indexed": true,
          "internalType": "bytes32",
          "name": "previousAdminRole",
          "type": "bytes32"
        },
        {
          "indexed": true,
          "internalType": "bytes32",
          "name": "newAdminRole",
          "type": "bytes32"
        }
      ],
      "name": "RoleAdminChanged",
      "type": "event"
    },
    {
      "anonymous": false,
      "inputs": [
        {
          "indexed": true,
          "internalType": "bytes32",
          "name": "role",
          "type": "bytes32"
        },
        {
          "indexed": true,
          "internalType": "address",
          "name": "account",
          "type": "address"
        },
        {
          "indexed": true,
          "internalType": "address",
          "name": "sender",
          "type": "address"
        }
      ],
      "name": "RoleGranted",
      "type": "event"
    },
    {
      "anonymous": false,
      "inputs": [
        {
          "indexed": true,
          "internalType": "bytes32",
          "name": "role",
          "type": "bytes32"
        },
        {
          "indexed": true,
          "internalType": "address",
          "name": "account",
          "type": "address"
        },
        {
          "indexed": true,
          "internalType": "address",
          "name": "sender",
          "type": "address"
        }
      ],
      "name": "RoleRevoked",
      "type": "event"
    },
    {
      "anonymous": false,
      "inputs": [
        {
          "indexed": false,
          "internalType": "uint256",
          "name": "oldThreshold",
          "type": "uint256"
        },
        {
          "indexed": false,
          "internalType": "uint256",
          "name": "newThreshold",
          "type": "uint256"
        }
      ],
      "name": "ThresholdChanged",
      "type": "event"
    },
    {
      "inputs": [],
      "name": "DEFAULT_ADMIN_ROLE",
      "outputs": [
        {
          "internalType": "bytes32",
          "name": "",
          "type": "bytes32"
        }
      ],
      "stateMutability": "view",
      "type": "function"
    },
    {
      "inputs": [],
      "name": "INSURANCE_ADMIN_ROLE",
      "outputs": [
        {
          "internalType": "bytes32",
          "name": "",
          "type": "bytes32"
        }
      ],
      "stateMutability": "view",
      "type": "function"
    },
    {
      "inputs": [],
      "name": "MAX_THRESHOLD_FEET",
      "outputs": [
        {
          "internalType": "uint256",
          "name": "",
          "type": "uint256"
        }
      ],
      "stateMutability": "view",
      "type": "function"
    },
    {
      "inputs": [],
      "name": "ORACLE_UPDATER_ROLE",
      "outputs": [
        {
          "internalType": "bytes32",
          "name": "",
          "type": "bytes32"
        }
      ],
      "stateMutability": "view",
      "type": "function"
    },
    {
      "inputs": [],
      "name": "SCALING_FACTOR",
      "outputs": [
        {
          "internalType": "uint256",
          "name": "",
          "type": "uint256"
        }
      ],
      "stateMutability": "view",
      "type": "function"
    },
    {
      "inputs": [
        {
          "internalType": "uint256",
          "name": "_coverage",
          "type": "uint256"
        }
      ],
      "name": "buyInsurance",
      "outputs": [],
      "stateMutability": "nonpayable",
      "type": "function"
    },
    {
      "inputs": [
        {
          "internalType": "uint256",
          "name": "_amount",
          "type": "uint256"
        }
      ],
      "name": "depositReserve",
      "outputs": [],
      "stateMutability": "nonpayable",
      "type": "function"
    },
    {
      "inputs": [],
      "name": "floodThreshold",
      "outputs": [
        {
          "internalType": "uint256",
          "name": "",
          "type": "uint256"
        }
      ],
      "stateMutability": "view",
      "type": "function"
    },
    {
      "inputs": [],
      "name": "getLatestPrice",
      "outputs": [
        {
          "internalType": "uint256",
          "name": "",
          "type": "uint256"
        }
      ],
      "stateMutability": "view",
      "type": "function"
    },
    {
      "inputs": [
        {
          "internalType": "bytes32",
          "name": "role",
          "type": "bytes32"
        }
      ],
      "name": "getRoleAdmin",
      "outputs": [
        {
          "internalType": "bytes32",
          "name": "",
          "type": "bytes32"
        }
      ],
      "stateMutability": "view",
      "type": "function"
    },
    {
      "inputs": [
        {
          "internalType": "bytes32",
          "name": "role",
          "type": "bytes32"
        },
        {
          "internalType": "address",
          "name": "account",
          "type": "address"
        }
      ],
      "name": "grantRole",
      "outputs": [],
      "stateMutability": "nonpayable",
      "type": "function"
    },
    {
      "inputs": [
        {
          "internalType": "bytes32",
          "name": "role",
          "type": "bytes32"
        },
        {
          "internalType": "address",
          "name": "account",
          "type": "address"
        }
      ],
      "name": "hasRole",
      "outputs": [
        {
          "internalType": "bool",
          "name": "",
          "type": "bool"
        }
      ],
      "stateMutability": "view",
      "type": "function"
    },
    {
      "inputs": [],
      "name": "owner",
      "outputs": [
        {
          "internalType": "address",
          "name": "",
          "type": "address"
        }
      ],
      "stateMutability": "view",
      "type": "function"
    },
    {
      "inputs": [
        {
          "internalType": "address",
          "name": "",
          "type": "address"
        }
      ],
      "name": "policies",
      "outputs": [
        {
          "internalType": "address",
          "name": "customer",
          "type": "address"
        },
        {
          "internalType": "uint256",
          "name": "premium",
          "type": "uint256"
        },
        {
          "internalType": "uint256",
          "name": "coverage",
          "type": "uint256"
        },
        {
          "internalType": "bool",
          "name": "active",
          "type": "bool"
        },
        {
          "internalType": "bool",
          "name": "paidOut",
          "type": "bool"
        }
      ],
      "stateMutability": "view",
      "type": "function"
    },
    {
      "inputs": [],
      "name": "priceFeed",
      "outputs": [
        {
          "internalType": "contract AggregatorV3Interface",
          "name": "",
          "type": "address"
        }
      ],
      "stateMutability": "view",
      "type": "function"
    },
    {
      "inputs": [
        {
          "internalType": "bytes32",
          "name": "role",
          "type": "bytes32"
        },
        {
          "internalType": "address",
          "name": "callerConfirmation",
          "type": "address"
        }
      ],
      "name": "renounceRole",
      "outputs": [],
      "stateMutability": "nonpayable",
      "type": "function"
    },
    {
      "inputs": [
        {
          "internalType": "bytes32",
          "name": "role",
          "type": "bytes32"
        },
        {
          "internalType": "address",
          "name": "account",
          "type": "address"
        }
      ],
      "name": "revokeRole",
      "outputs": [],
      "stateMutability": "nonpayable",
      "type": "function"
    },
    {
      "inputs": [
        {
          "internalType": "address",
          "name": "_oracleAddress",
          "type": "address"
        }
      ],
      "name": "setOracleAddress",
      "outputs": [],
      "stateMutability": "nonpayable",
      "type": "function"
    },
    {
      "inputs": [
        {
          "internalType": "uint256",
          "name": "_thresholdFeet",
          "type": "uint256"
        }
      ],
      "name": "setThreshold",
      "outputs": [],
      "stateMutability": "nonpayable",
      "type": "function"
    },
    {
      "inputs": [
        {
          "internalType": "bytes4",
          "name": "interfaceId",
          "type": "bytes4"
        }
      ],
      "name": "supportsInterface",
      "outputs": [
        {
          "internalType": "bool",
          "name": "",
          "type": "bool"
        }
      ],
      "stateMutability": "view",
      "type": "function"
    },
    {
      "inputs": [],
      "name": "triggerPayout",
      "outputs": [],
      "stateMutability": "nonpayable",
      "type": "function"
    },
    {
      "inputs": [],
      "name": "usdc",
      "outputs": [
        {
          "internalType": "contract IERC20",
          "name": "",
          "type": "address"
        }
      ],
      "stateMutability": "view",
      "type": "function"
    },
    {
      "inputs": [],
      "name": "usdcPool",
      "outputs": [
        {
          "internalType": "uint256",
          "name": "",
          "type": "uint256"
        }
      ],
      "stateMutability": "view",
      "type": "function"
    },
    {
      "inputs": [],
      "name": "usyc",
      "outputs": [
        {
          "internalType": "contract IERC20",
          "name": "",
          "type": "address"
        }
      ],
      "stateMutability": "view",
      "type": "function"
    },
    {
      "inputs": [],
      "name": "usycReserve",
      "outputs": [
        {
          "internalType": "uint256",
          "name": "",
          "type": "uint256"
        }
      ],
      "stateMutability": "view",
      "type": "function"
    },
    {
      "inputs": [
        {
          "internalType": "uint256",
          "name": "_amount",
          "type": "uint256"
        }
      ],
      "name": "withdrawUSDC",
      "outputs": [],
      "stateMutability": "nonpayable",
      "type": "function"
    },
    {
      "inputs": [
        {
          "internalType": "uint256",
          "name": "_amount",
          "type": "uint256"
        }
      ],
      "name": "withdrawUSYC",
      "outputs": [],
      "stateMutability": "nonpayable",
      "type": "function"
    }
  ],
  "bytecode": "0x60c06040526501176592e00060025534801561001a57600080fd5b506040516115fe3803806115fe833981016040819052610039916101a4565b600580546001600160a01b0319163390811790915561005a906000906100dc565b506100857f9792fdc19ab98adfa72ab2fa98d342618c661e01c406979c105b31eda87f5e6f336100dc565b506100b07f89b7833be53af5649430c7ac49df0baab05039ffab1e3f75ae8a0942c324699a336100dc565b50600180546001600160a01b0319166001600160a01b039485161790559082166080521660a0526101e7565b6000828152602081815260408083206001600160a01b038516845290915281205460ff1661017e576000838152602081815260408083206001600160a01b03861684529091529020805460ff191660011790556101363390565b6001600160a01b0316826001600160a01b0316847f2f8788117e7eff1d82e926ec794901d17c78024a50270940304540a733656f0d60405160405180910390a4506001610182565b5060005b92915050565b80516001600160a01b038116811461019f57600080fd5b919050565b6000806000606084860312156101b957600080fd5b6101c284610188565b92506101d060208501610188565b91506101de60408501610188565b90509250925092565b60805160a0516113c161023d600039600081816103e7015281816104fe0152818161089d0152610fd50152600081816102f7015281816107020152818161080a01528181610d260152610f2c01526113c16000f3fe608060405234801561001057600080fd5b50600436106101a95760003560e01c80638da5cb5b116100f9578063d547741f11610097578063e49bd61e11610071578063e49bd61e14610438578063ef4cadc514610441578063f42d48a11461044d578063fb9230451461046057600080fd5b8063d547741f14610409578063db81f99b1461041c578063e28409751461042f57600080fd5b8063960bfe04116100d3578063960bfe04146103b4578063a217fddf146103c7578063a86a658c146103cf578063c166beb6146103e257600080fd5b80638da5cb5b146103865780638e15f4731461039957806391d14854146103a157600080fd5b80632f2ff15d116101665780634c69c00f116101405780634c69c00f14610331578063586170c914610344578063741bef1a1461034c578063741fe1261461035f57600080fd5b80632f2ff15d146102cc57806336568abe146102df5780633e413bee146102f257600080fd5b8063017c863c146101ae57806301ffc9a7146101c357806305a95f04146101eb5780631732d330146101f357806320e9869814610228578063248a9ca3146102a9575b600080fd5b6101c16101bc3660046111e0565b610469565b005b6101d66101d13660046111f9565b610579565b60405190151581526020015b60405180910390f35b6101c16105b0565b61021a7f9792fdc19ab98adfa72ab2fa98d342618c661e01c406979c105b31eda87f5e6f81565b6040519081526020016101e2565b610273610236366004611241565b60066020526000908152604090208054600182015460028301546003909301546001600160a01b0390921692909160ff8082169161010090041685565b604080516001600160a01b039096168652602086019490945292840191909152151560608301521515608082015260a0016101e2565b61021a6102b73660046111e0565b60009081526020819052604090206001015490565b6101c16102da36600461125c565b610955565b6101c16102ed36600461125c565b610980565b6103197f000000000000000000000000000000000000000000000000000000000000000081565b6040516001600160a01b0390911681526020016101e2565b6101c161033f366004611241565b6109b3565b61021a606481565b600154610319906001600160a01b031681565b61021a7f89b7833be53af5649430c7ac49df0baab05039ffab1e3f75ae8a0942c324699a81565b600554610319906001600160a01b031681565b61021a610a60565b6101d66103af36600461125c565b610b2b565b6101c16103c23660046111e0565b610b54565b61021a600081565b6101c16103dd3660046111e0565b610c06565b6103197f000000000000000000000000000000000000000000000000000000000000000081565b6101c161041736600461125c565b610e7e565b6101c161042a3660046111e0565b610ea3565b61021a60025481565b61021a60035481565b61021a64174876e80081565b6101c161045b3660046111e0565b610f63565b61021a60045481565b600061047481611099565b6004548211156104cb5760405162461bcd60e51b815260206004820152601960248201527f496e73756666696369656e74205553594320726573657276650000000000000060448201526064015b60405180910390fd5b81600460008282546104dd919061129e565b909155505060405163a9059cbb60e01b8152336004820152602481018390527f00000000000000000000000000000000000000000000000000000000000000006001600160a01b03169063a9059cbb906044015b6020604051808303816000875af1158015610550573d6000803e3d6000fd5b505050506040513d601f19601f8201168201806040525081019061057491906112b1565b505050565b60006001600160e01b03198216637965db0b60e01b14806105aa57506301ffc9a760e01b6001600160e01b03198316145b92915050565b336000908152600660205260409020600381015460ff166106065760405162461bcd60e51b815260206004820152601060248201526f4e6f2061637469766520706f6c69637960801b60448201526064016104c2565b6003810154610100900460ff16156106535760405162461bcd60e51b815260206004820152601060248201526f105b1c9958591e481c185a59081bdd5d60821b60448201526064016104c2565b600061065d610a60565b90506002548110156106b15760405162461bcd60e51b815260206004820152601b60248201527f466c6f6f64206c6576656c2062656c6f77207468726573686f6c64000000000060448201526064016104c2565b60028201546003808401805461ffff19166101001790555481116107b85780600360008282546106e1919061129e565b909155505060405163a9059cbb60e01b8152336004820152602481018290527f00000000000000000000000000000000000000000000000000000000000000006001600160a01b03169063a9059cbb906044016020604051808303816000875af1158015610753573d6000803e3d6000fd5b505050506040513d601f19601f8201168201806040525081019061077791906112b1565b50604080518281526000602082015233917f5306cd5c1fd578475b0797de95f693e723b7bbf516236b27419b74bf999ef028910160405180910390a2505050565b60035460006107c7828461129e565b9050600060038190555080600460008282546107e3919061129e565b909155505081156108815760405163a9059cbb60e01b8152336004820152602481018390527f00000000000000000000000000000000000000000000000000000000000000006001600160a01b03169063a9059cbb906044016020604051808303816000875af115801561085b573d6000803e3d6000fd5b505050506040513d601f19601f8201168201806040525081019061087f91906112b1565b505b60405163a9059cbb60e01b8152336004820152602481018290527f00000000000000000000000000000000000000000000000000000000000000006001600160a01b03169063a9059cbb906044016020604051808303816000875af11580156108ee573d6000803e3d6000fd5b505050506040513d601f19601f8201168201806040525081019061091291906112b1565b50604080518381526020810183905233917f5306cd5c1fd578475b0797de95f693e723b7bbf516236b27419b74bf999ef028910160405180910390a25050505050565b60008281526020819052604090206001015461097081611099565b61097a83836110a6565b50505050565b6001600160a01b03811633146109a95760405163334bd91960e11b815260040160405180910390fd5b6105748282611138565b60006109be81611099565b6001600160a01b038216610a0d5760405162461bcd60e51b8152602060048201526016602482015275496e76616c6964206f7261636c65206164647265737360501b60448201526064016104c2565b600180546001600160a01b038481166001600160a01b0319831681179093556040519116919082907fd3afd1676752459d3aa8b6f73633fac8efd724610da9c4cd8d8e4fa1631841fb90600090a3505050565b600080600160009054906101000a90046001600160a01b03166001600160a01b031663feaf968c6040518163ffffffff1660e01b815260040160a060405180830381865afa158015610ab6573d6000803e3d6000fd5b505050506040513d601f19601f82011682018060405250810190610ada91906112ed565b50505091505060008113610b265760405162461bcd60e51b8152602060048201526013602482015272496e76616c6964206f7261636c65206461746160681b60448201526064016104c2565b919050565b6000918252602082815260408084206001600160a01b0393909316845291905290205460ff1690565b6000610b5f81611099565b600082118015610b70575060648211155b610bb05760405162461bcd60e51b8152602060048201526011602482015270125b9d985b1a59081d1a1c995cda1bdb19607a1b60448201526064016104c2565b600254610bc264174876e8008461133f565b60028190556040805183815260208101929092527f3164947cf0f49f08dd0cd80e671535b1e11590d347c55dcaa97ba3c24a96b33a910160405180910390a1505050565b3360009081526006602052604090206003015460ff1615610c695760405162461bcd60e51b815260206004820152601960248201527f416c7265616479206861732061637469766520706f6c6963790000000000000060448201526064016104c2565b60008111610cb05760405162461bcd60e51b81526020600482015260146024820152730436f766572616765206d757374206265203e20360641b60448201526064016104c2565b6000610cbd600a83611356565b905060008111610d045760405162461bcd60e51b815260206004820152601260248201527110dbdd995c9859d9481d1bdbc81cdb585b1b60721b60448201526064016104c2565b6040516323b872dd60e01b8152336004820152306024820152604481018290527f00000000000000000000000000000000000000000000000000000000000000006001600160a01b0316906323b872dd906064016020604051808303816000875af1158015610d77573d6000803e3d6000fd5b505050506040513d601f19601f82011682018060405250810190610d9b91906112b1565b508060036000828254610dae9190611378565b90915550506040805160a0810182523380825260208083018581528385018781526001606086018181526000608088018181528782526006875290899020975188546001600160a01b0319166001600160a01b03909116178855935191870191909155905160028601555160039094018054915161ffff1990921694151561ff0019169490941761010091151591909102179092558251848152918201859052917f6c165bac7b911fd3865d9050099e5e033490a3e0b4a1771f691fccca2b3c0ed1910160405180910390a25050565b600082815260208190526040902060010154610e9981611099565b61097a8383611138565b6000610eae81611099565b600354821115610ef95760405162461bcd60e51b8152602060048201526016602482015275125b9cdd59999a58da595b9d081554d110c81c1bdbdb60521b60448201526064016104c2565b8160036000828254610f0b919061129e565b909155505060405163a9059cbb60e01b8152336004820152602481018390527f00000000000000000000000000000000000000000000000000000000000000006001600160a01b03169063a9059cbb90604401610531565b6000610f6e81611099565b60008211610fb35760405162461bcd60e51b81526020600482015260126024820152710416d6f756e74206d757374206265203e20360741b60448201526064016104c2565b6040516323b872dd60e01b8152336004820152306024820152604481018390527f00000000000000000000000000000000000000000000000000000000000000006001600160a01b0316906323b872dd906064016020604051808303816000875af1158015611026573d6000803e3d6000fd5b505050506040513d601f19601f8201168201806040525081019061104a91906112b1565b50816004600082825461105d9190611378565b90915550506040518281527f8941e235e57d919aa7e075ea0db7bb90f1a7205e1340393f56fb1a03ef15b9f39060200160405180910390a15050565b6110a381336111a3565b50565b60006110b28383610b2b565b611130576000838152602081815260408083206001600160a01b03861684529091529020805460ff191660011790556110e83390565b6001600160a01b0316826001600160a01b0316847f2f8788117e7eff1d82e926ec794901d17c78024a50270940304540a733656f0d60405160405180910390a45060016105aa565b5060006105aa565b60006111448383610b2b565b15611130576000838152602081815260408083206001600160a01b0386168085529252808320805460ff1916905551339286917ff6391f5c32d9c69d2a47ea670b442974b53935d1edc7fd64eb21e047a839171b9190a45060016105aa565b6111ad8282610b2b565b6111dc5760405163e2517d3f60e01b81526001600160a01b0382166004820152602481018390526044016104c2565b5050565b6000602082840312156111f257600080fd5b5035919050565b60006020828403121561120b57600080fd5b81356001600160e01b03198116811461122357600080fd5b9392505050565b80356001600160a01b0381168114610b2657600080fd5b60006020828403121561125357600080fd5b6112238261122a565b6000806040838503121561126f57600080fd5b8235915061127f6020840161122a565b90509250929050565b634e487b7160e01b600052601160045260246000fd5b818103818111156105aa576105aa611288565b6000602082840312156112c357600080fd5b8151801515811461122357600080fd5b805169ffffffffffffffffffff81168114610b2657600080fd5b600080600080600060a0868803121561130557600080fd5b61130e866112d3565b60208701516040880151606089015192975090955093509150611333608087016112d3565b90509295509295909350565b80820281158282048414176105aa576105aa611288565b60008261137357634e487b7160e01b600052601260045260246000fd5b500490565b808201808211156105aa576105aa61128856fea264697066735822122023755ad9a91879b8fd5edc21d4d4c029825f0ee79ef6735ed0004d8e60fef29964736f6c634300081c0033",
  "linkReferences": {},
  "deployedLinkReferences": {}
}